{
  "contractName": "DeusBridge",
  "abi": [
    {
      "inputs": [
        {
          "internalType": "uint256",
          "name": "_network",
          "type": "uint256"
        }
      ],
      "stateMutability": "nonpayable",
      "type": "constructor"
    },
    {
      "anonymous": false,
      "inputs": [
        {
          "indexed": true,
          "internalType": "address",
          "name": "previousOwner",
          "type": "address"
        },
        {
          "indexed": true,
          "internalType": "address",
          "name": "newOwner",
          "type": "address"
        }
      ],
      "name": "OwnershipTransferred",
      "type": "event"
    },
    {
      "inputs": [],
      "name": "network",
      "outputs": [
        {
          "internalType": "uint256",
          "name": "",
          "type": "uint256"
        }
      ],
      "stateMutability": "view",
      "type": "function"
    },
    {
      "inputs": [],
      "name": "owner",
      "outputs": [
        {
          "internalType": "address",
          "name": "",
          "type": "address"
        }
      ],
      "stateMutability": "view",
      "type": "function"
    },
    {
      "inputs": [],
      "name": "renounceOwnership",
      "outputs": [],
      "stateMutability": "nonpayable",
      "type": "function"
    },
    {
      "inputs": [
        {
          "internalType": "uint256",
          "name": "",
          "type": "uint256"
        }
      ],
      "name": "tokens",
      "outputs": [
        {
          "internalType": "address",
          "name": "",
          "type": "address"
        }
      ],
      "stateMutability": "view",
      "type": "function"
    },
    {
      "inputs": [
        {
          "internalType": "address",
          "name": "newOwner",
          "type": "address"
        }
      ],
      "name": "transferOwnership",
      "outputs": [],
      "stateMutability": "nonpayable",
      "type": "function"
    },
    {
      "inputs": [
        {
          "internalType": "uint256",
          "name": "",
          "type": "uint256"
        }
      ],
      "name": "txs",
      "outputs": [
        {
          "internalType": "uint256",
          "name": "txId",
          "type": "uint256"
        },
        {
          "internalType": "uint256",
          "name": "tokenId",
          "type": "uint256"
        },
        {
          "internalType": "uint256",
          "name": "amount",
          "type": "uint256"
        },
        {
          "internalType": "uint256",
          "name": "toChain",
          "type": "uint256"
        },
        {
          "internalType": "address",
          "name": "user",
          "type": "address"
        }
      ],
      "stateMutability": "view",
      "type": "function"
    },
    {
      "inputs": [
        {
          "internalType": "uint256",
          "name": "amount",
          "type": "uint256"
        },
        {
          "internalType": "uint256",
          "name": "toChain",
          "type": "uint256"
        },
        {
          "internalType": "uint256",
          "name": "tokenId",
          "type": "uint256"
        }
      ],
      "name": "deposit",
      "outputs": [],
      "stateMutability": "nonpayable",
      "type": "function"
    },
    {
      "inputs": [
        {
          "internalType": "address",
          "name": "user",
          "type": "address"
        },
        {
          "internalType": "uint256",
          "name": "amount",
          "type": "uint256"
        },
        {
          "internalType": "uint256",
          "name": "toChain",
          "type": "uint256"
        },
        {
          "internalType": "uint256",
          "name": "tokenId",
          "type": "uint256"
        }
      ],
      "name": "depositFor",
      "outputs": [],
      "stateMutability": "nonpayable",
      "type": "function"
    },
    {
      "inputs": [
        {
          "internalType": "address",
          "name": "user",
          "type": "address"
        },
        {
          "internalType": "uint256",
          "name": "amount",
          "type": "uint256"
        },
        {
          "internalType": "uint256",
          "name": "toChain",
          "type": "uint256"
        },
        {
          "internalType": "uint256",
          "name": "tokenId",
          "type": "uint256"
        },
        {
          "internalType": "uint256",
          "name": "txId",
          "type": "uint256"
        }
      ],
      "name": "claim",
      "outputs": [],
      "stateMutability": "nonpayable",
      "type": "function"
    },
    {
      "inputs": [
        {
          "internalType": "uint256[]",
          "name": "ids",
          "type": "uint256[]"
        }
      ],
      "name": "pendingTxs",
      "outputs": [
        {
          "internalType": "bool[]",
          "name": "unclaimedIds",
          "type": "bool[]"
        }
      ],
      "stateMutability": "view",
      "type": "function"
    },
    {
      "inputs": [
        {
          "internalType": "uint256",
          "name": "tokenId",
          "type": "uint256"
        },
        {
          "internalType": "address",
          "name": "tokenContract",
          "type": "address"
        }
      ],
      "name": "ownerAddToken",
      "outputs": [],
      "stateMutability": "nonpayable",
      "type": "function"
    }
  ],
  "bytecode": "0x6080604052600060035534801561001557600080fd5b50604051610bfc380380610bfc83398101604081905261003491610094565b600061003e610090565b600080546001600160a01b0319166001600160a01b0383169081178255604051929350917f8be0079c531659141344cd1fd0a4f28419497f9722a3daafe3b4186f6b6457e0908290a3506001556100ac565b3390565b6000602082840312156100a5578081fd5b5051919050565b610b41806100bb6000396000f3fe608060405234801561001057600080fd5b50600436106100a85760003560e01c80636739afca116100715780636739afca14610131578063715018a6146101465780638da5cb5b1461014e578063f2fde38b14610156578063f5715d5614610169578063fdb192ec1461018d576100a8565b8062aeef8a146100ad57806310611bdd146100c25780633f4a7fe7146100eb5780634f64b2be146100fe578063614f33641461011e575b600080fd5b6100c06100bb366004610906565b6101a0565b005b6100d56100d0366004610834565b6101b1565b6040516100e29190610982565b60405180910390f35b6100c06100f93660046108db565b6102a1565b61011161010c3660046108c3565b610317565b6040516100e29190610931565b6100c061012c3660046107bb565b610332565b6101396104ab565b6040516100e29190610aaf565b6100c06104b1565b61011161053a565b6100c061016436600461079a565b610549565b61017c6101773660046108c3565b610609565b6040516100e2959493929190610ab8565b6100c061019b3660046107f3565b610642565b6101ac33848484610332565b505050565b60608167ffffffffffffffff8111156101da57634e487b7160e01b600052604160045260246000fd5b604051908082528060200260200182016040528015610203578160200160208202803683370190505b50905060005b8281101561029a576006600085858481811061023557634e487b7160e01b600052603260045260246000fd5b90506020020135815260200190815260200160002060009054906101000a900460ff1682828151811061027857634e487b7160e01b600052603260045260246000fd5b911515602092830291909101909101528061029281610ae4565b915050610209565b5092915050565b6102a961077a565b6001600160a01b03166102ba61053a565b6001600160a01b0316146102e95760405162461bcd60e51b81526004016102e090610a58565b60405180910390fd5b60009182526002602052604090912080546001600160a01b0319166001600160a01b03909216919091179055565b6002602052600090815260409020546001600160a01b031681565b6000818152600260205260409020546001600160a01b03166103665760405162461bcd60e51b81526004016102e090610a8d565b600081815260026020526040908190205490516323b872dd60e01b81526001600160a01b039091169081906323b872dd906103a990339030908990600401610945565b602060405180830381600087803b1580156103c357600080fd5b505af11580156103d7573d6000803e3d6000fd5b505050506040513d601f19601f820116820180604052508101906103fb91906108a3565b50600060036000815461040d90610ae4565b91829055506040805160a0810182528281526020808201968752818301988952606082019788526001600160a01b03998a16608083018181526003805460009081526004808652878220965187559a516001808801919091559c5160028701559a5190850155519290970180546001600160a01b03191692909a16919091179098559385526005875292842080549586018155845250509290200155565b60015481565b6104b961077a565b6001600160a01b03166104ca61053a565b6001600160a01b0316146104f05760405162461bcd60e51b81526004016102e090610a58565b600080546040516001600160a01b03909116907f8be0079c531659141344cd1fd0a4f28419497f9722a3daafe3b4186f6b6457e0908390a3600080546001600160a01b0319169055565b6000546001600160a01b031690565b61055161077a565b6001600160a01b031661056261053a565b6001600160a01b0316146105885760405162461bcd60e51b81526004016102e090610a58565b6001600160a01b0381166105ae5760405162461bcd60e51b81526004016102e0906109f0565b600080546040516001600160a01b03808516939216917f8be0079c531659141344cd1fd0a4f28419497f9722a3daafe3b4186f6b6457e091a3600080546001600160a01b0319166001600160a01b0392909216919091179055565b6004602081905260009182526040909120805460018201546002830154600384015493909401549193909290916001600160a01b031685565b60015483146106635760405162461bcd60e51b81526004016102e090610a36565b60008181526006602052604090205460ff16156106925760405162461bcd60e51b81526004016102e0906109c8565b6000828152600260205260409020546001600160a01b03166106c65760405162461bcd60e51b81526004016102e090610a8d565b6000828152600260205260409081902054905163a9059cbb60e01b81526001600160a01b0390911690819063a9059cbb906107079089908990600401610969565b602060405180830381600087803b15801561072157600080fd5b505af1158015610735573d6000803e3d6000fd5b505050506040513d601f19601f8201168201806040525081019061075991906108a3565b50506000908152600660205260409020805460ff1916600117905550505050565b3390565b80356001600160a01b038116811461079557600080fd5b919050565b6000602082840312156107ab578081fd5b6107b48261077e565b9392505050565b600080600080608085870312156107d0578283fd5b6107d98561077e565b966020860135965060408601359560600135945092505050565b600080600080600060a0868803121561080a578081fd5b6108138661077e565b97602087013597506040870135966060810135965060800135945092505050565b60008060208385031215610846578182fd5b823567ffffffffffffffff8082111561085d578384fd5b818501915085601f830112610870578384fd5b81358181111561087e578485fd5b8660208083028501011115610891578485fd5b60209290920196919550909350505050565b6000602082840312156108b4578081fd5b815180151581146107b4578182fd5b6000602082840312156108d4578081fd5b5035919050565b600080604083850312156108ed578182fd5b823591506108fd6020840161077e565b90509250929050565b60008060006060848603121561091a578283fd5b505081359360208301359350604090920135919050565b6001600160a01b0391909116815260200190565b6001600160a01b039384168152919092166020820152604081019190915260600190565b6001600160a01b03929092168252602082015260400190565b6020808252825182820181905260009190848201906040850190845b818110156109bc57835115158352928401929184019160010161099e565b50909695505050505050565b6020808252600e908201526d185b1c99585e4818db185a5b595960921b604082015260600190565b60208082526026908201527f4f776e61626c653a206e6577206f776e657220697320746865207a65726f206160408201526564647265737360d01b606082015260800190565b602080825260089082015267216e6574776f726b60c01b604082015260600190565b6020808252818101527f4f776e61626c653a2063616c6c6572206973206e6f7420746865206f776e6572604082015260600190565b602080825260089082015267085d1bdad95b925960c21b604082015260600190565b90815260200190565b9485526020850193909352604084019190915260608301526001600160a01b0316608082015260a00190565b6000600019821415610b0457634e487b7160e01b81526011600452602481fd5b506001019056fea264697066735822122084adf8650c4bdf7c0d80618d6026b0537f6e1a29afa9d140231563ae2189208d64736f6c63430008000033",
  "immutableReferences": {},
  "source": "// SPDX-License-Identifier: MIT\npragma solidity ^0.8.0;\n\nimport \"@openzeppelin/contracts/access/Ownable.sol\";\nimport \"@openzeppelin/contracts/utils/math/SafeMath.sol\";\n\ninterface StakedToken {\n    function balanceOf(address account) external view returns (uint256);\n    function transfer(address recipient, uint256 amount) external returns (bool);\n    function transferFrom(address sender, address recipient, uint256 amount) external returns (bool);\n    function approve(address spender, uint256 amount) external returns (bool);\n}\n\ncontract DeusBridge is Ownable{\n    using SafeMath for uint256;\n\n    // we assign a unique ID to each chain\n    uint256 public network;\n\n    // tokenId => tokenContractAddress\n    mapping(uint256 => address) public tokens;\n\n    struct TX{\n        uint256 txId;\n        uint256 tokenId;\n        uint256 amount;\n        uint256 toChain;\n        address user;\n    }\n    uint256 lastTxId = 0;\n\n    mapping(uint256 => TX) public txs;\n    mapping(address => uint256[]) userTxs;\n\n    mapping(uint256 => bool) claimedTxs;\n\n    constructor(\n        uint256 _network\n    ){\n        network = _network;\n    }\n\n    function deposit(uint256 amount, uint256 toChain,\n        uint256 tokenId) public {\n        depositFor(msg.sender, amount, toChain, tokenId);\n    }\n\n    function depositFor(address user,\n        uint256 amount, uint256 toChain,\n        uint256 tokenId\n    ) public {\n        require(tokens[tokenId] != address(0), \"!tokenId\");\n\n        StakedToken token = StakedToken(tokens[tokenId]);\n        token.transferFrom(address(msg.sender), address(this), amount);\n\n        uint256 txId = ++lastTxId;\n        txs[lastTxId] = TX({\n            txId: txId,\n            tokenId: tokenId,\n            toChain: toChain,\n            amount: amount,\n            user: user\n        });\n        userTxs[user].push(txId);\n    }\n\n    //TODO: add Muon signature\n    function claim(address user,\n        uint256 amount, uint256 toChain,\n        uint256 tokenId, uint256 txId) public{\n\n        require(toChain == network, \"!network\");\n\n        //TODO: shall we support more than one chain in one contract?\n        require(!claimedTxs[txId], \"alreay claimed\");\n        require(tokens[tokenId] != address(0), \"!tokenId\");\n\n        StakedToken token = StakedToken(tokens[tokenId]);\n\n        //TODO: any fees?\n        token.transfer(user, amount);\n        claimedTxs[txId] = true;\n    }\n\n    function pendingTxs(uint256[] calldata ids) public view returns(\n        bool[] memory unclaimedIds\n    ){\n        unclaimedIds = new bool[](ids.length);\n        for(uint256 i=0; i < ids.length; i++){\n            unclaimedIds[i] = claimedTxs[ids[i]];\n        }\n    }\n\n    function ownerAddToken(\n        uint256 tokenId, address tokenContract\n    ) public onlyOwner{\n        tokens[tokenId] = tokenContract;\n    }\n}\n",
  "sourcePath": "/home/projects/projects/deus/bridge-contracts/contracts/DeusBridge.sol",
  "compiler": {
    "name": "solc",
    "version": "0.8.0+commit.c7dfd78e.Emscripten.clang"
  },
  "schemaVersion": "3.3.2",
  "updatedAt": "2021-05-10T19:05:49.739Z",
  "devdoc": {
    "kind": "dev",
    "methods": {
      "owner()": {
        "details": "Returns the address of the current owner."
      },
      "renounceOwnership()": {
        "details": "Leaves the contract without owner. It will not be possible to call `onlyOwner` functions anymore. Can only be called by the current owner. NOTE: Renouncing ownership will leave the contract without an owner, thereby removing any functionality that is only available to the owner."
      },
      "transferOwnership(address)": {
        "details": "Transfers ownership of the contract to a new account (`newOwner`). Can only be called by the current owner."
      }
    },
    "version": 1
  },
  "userdoc": {
    "kind": "user",
    "methods": {},
    "version": 1
  }
}