{
  "contractName": "DeusBridge",
  "abi": [
    {
      "inputs": [
        {
          "internalType": "uint256",
          "name": "_network",
          "type": "uint256"
        }
      ],
      "stateMutability": "nonpayable",
      "type": "constructor"
    },
    {
      "anonymous": false,
      "inputs": [
        {
          "indexed": true,
          "internalType": "address",
          "name": "previousOwner",
          "type": "address"
        },
        {
          "indexed": true,
          "internalType": "address",
          "name": "newOwner",
          "type": "address"
        }
      ],
      "name": "OwnershipTransferred",
      "type": "event"
    },
    {
      "inputs": [],
      "name": "network",
      "outputs": [
        {
          "internalType": "uint256",
          "name": "",
          "type": "uint256"
        }
      ],
      "stateMutability": "view",
      "type": "function"
    },
    {
      "inputs": [],
      "name": "owner",
      "outputs": [
        {
          "internalType": "address",
          "name": "",
          "type": "address"
        }
      ],
      "stateMutability": "view",
      "type": "function"
    },
    {
      "inputs": [],
      "name": "renounceOwnership",
      "outputs": [],
      "stateMutability": "nonpayable",
      "type": "function"
    },
    {
      "inputs": [
        {
          "internalType": "uint256",
          "name": "",
          "type": "uint256"
        }
      ],
      "name": "tokens",
      "outputs": [
        {
          "internalType": "address",
          "name": "",
          "type": "address"
        }
      ],
      "stateMutability": "view",
      "type": "function"
    },
    {
      "inputs": [
        {
          "internalType": "address",
          "name": "newOwner",
          "type": "address"
        }
      ],
      "name": "transferOwnership",
      "outputs": [],
      "stateMutability": "nonpayable",
      "type": "function"
    },
    {
      "inputs": [
        {
          "internalType": "uint256",
          "name": "",
          "type": "uint256"
        }
      ],
      "name": "txs",
      "outputs": [
        {
          "internalType": "uint256",
          "name": "txId",
          "type": "uint256"
        },
        {
          "internalType": "uint256",
          "name": "tokenId",
          "type": "uint256"
        },
        {
          "internalType": "uint256",
          "name": "amount",
          "type": "uint256"
        },
        {
          "internalType": "uint256",
          "name": "toChain",
          "type": "uint256"
        },
        {
          "internalType": "address",
          "name": "user",
          "type": "address"
        }
      ],
      "stateMutability": "view",
      "type": "function"
    },
    {
      "inputs": [
        {
          "internalType": "uint256",
          "name": "amount",
          "type": "uint256"
        },
        {
          "internalType": "uint256",
          "name": "toChain",
          "type": "uint256"
        },
        {
          "internalType": "uint256",
          "name": "tokenId",
          "type": "uint256"
        }
      ],
      "name": "deposit",
      "outputs": [],
      "stateMutability": "nonpayable",
      "type": "function"
    },
    {
      "inputs": [
        {
          "internalType": "address",
          "name": "user",
          "type": "address"
        },
        {
          "internalType": "uint256",
          "name": "amount",
          "type": "uint256"
        },
        {
          "internalType": "uint256",
          "name": "toChain",
          "type": "uint256"
        },
        {
          "internalType": "uint256",
          "name": "tokenId",
          "type": "uint256"
        }
      ],
      "name": "depositFor",
      "outputs": [],
      "stateMutability": "nonpayable",
      "type": "function"
    },
    {
      "inputs": [
        {
          "internalType": "address",
          "name": "user",
          "type": "address"
        },
        {
          "internalType": "uint256",
          "name": "amount",
          "type": "uint256"
        },
        {
          "internalType": "uint256",
          "name": "toChain",
          "type": "uint256"
        },
        {
          "internalType": "uint256",
          "name": "tokenId",
          "type": "uint256"
        },
        {
          "internalType": "uint256",
          "name": "txId",
          "type": "uint256"
        }
      ],
      "name": "claim",
      "outputs": [],
      "stateMutability": "nonpayable",
      "type": "function"
    },
    {
      "inputs": [
        {
          "internalType": "uint256[]",
          "name": "ids",
          "type": "uint256[]"
        }
      ],
      "name": "pendingTxs",
      "outputs": [
        {
          "internalType": "bool[]",
          "name": "unclaimedIds",
          "type": "bool[]"
        }
      ],
      "stateMutability": "view",
      "type": "function"
    },
    {
      "inputs": [
        {
          "internalType": "uint256",
          "name": "tokenId",
          "type": "uint256"
        },
        {
          "internalType": "address",
          "name": "tokenContract",
          "type": "address"
        }
      ],
      "name": "ownerAddToken",
      "outputs": [],
      "stateMutability": "nonpayable",
      "type": "function"
    },
    {
      "inputs": [
        {
          "internalType": "uint256",
          "name": "amount",
          "type": "uint256"
        },
        {
          "internalType": "address",
          "name": "addr",
          "type": "address"
        }
      ],
      "name": "emergencyWithdrawETH",
      "outputs": [],
      "stateMutability": "nonpayable",
      "type": "function"
    },
    {
      "inputs": [
        {
          "internalType": "address",
          "name": "_tokenAddr",
          "type": "address"
        },
        {
          "internalType": "address",
          "name": "_to",
          "type": "address"
        },
        {
          "internalType": "uint256",
          "name": "_amount",
          "type": "uint256"
        }
      ],
      "name": "emergencyWithdrawERC20Tokens",
      "outputs": [],
      "stateMutability": "nonpayable",
      "type": "function"
    }
  ],
  "bytecode": "0x6080604052600060035534801561001557600080fd5b50604051610dd0380380610dd083398101604081905261003491610094565b600061003e610090565b600080546001600160a01b0319166001600160a01b0383169081178255604051929350917f8be0079c531659141344cd1fd0a4f28419497f9722a3daafe3b4186f6b6457e0908290a3506001556100ac565b3390565b6000602082840312156100a5578081fd5b5051919050565b610d15806100bb6000396000f3fe608060405234801561001057600080fd5b50600436106100ce5760003560e01c80636739afca1161008c578063b3f5e00811610066578063b3f5e0081461018f578063f2fde38b146101a2578063f5715d56146101b5578063fdb192ec146101d9576100ce565b80636739afca1461016a578063715018a61461017f5780638da5cb5b14610187576100ce565b8062aeef8a146100d357806310611bdd146100e857806315945006146101115780633f4a7fe7146101245780634f64b2be14610137578063614f336414610157575b600080fd5b6100e66100e1366004610ada565b6101ec565b005b6100fb6100f6366004610a08565b6101fd565b6040516101089190610b56565b60405180910390f35b6100e661011f366004610aaf565b6102ed565b6100e6610132366004610aaf565b61037e565b61014a610145366004610a97565b6103eb565b6040516101089190610b05565b6100e661016536600461098f565b610406565b61017261057f565b6040516101089190610c83565b6100e6610585565b61014a61060e565b6100e661019d366004610954565b61061d565b6100e66101b0366004610933565b6106e2565b6101c86101c3366004610a97565b6107a2565b604051610108959493929190610c8c565b6100e66101e73660046109c7565b6107db565b6101f833848484610406565b505050565b60608167ffffffffffffffff81111561022657634e487b7160e01b600052604160045260246000fd5b60405190808252806020026020018201604052801561024f578160200160208202803683370190505b50905060005b828110156102e6576006600085858481811061028157634e487b7160e01b600052603260045260246000fd5b90506020020135815260200190815260200160002060009054906101000a900460ff168282815181106102c457634e487b7160e01b600052603260045260246000fd5b91151560209283029190910190910152806102de81610cb8565b915050610255565b5092915050565b6102f5610913565b6001600160a01b031661030661060e565b6001600160a01b0316146103355760405162461bcd60e51b815260040161032c90610c2c565b60405180910390fd5b6001600160a01b03811661034857600080fd5b6040516001600160a01b0382169083156108fc029084906000818181858888f193505050501580156101f8573d6000803e3d6000fd5b610386610913565b6001600160a01b031661039761060e565b6001600160a01b0316146103bd5760405162461bcd60e51b815260040161032c90610c2c565b60009182526002602052604090912080546001600160a01b0319166001600160a01b03909216919091179055565b6002602052600090815260409020546001600160a01b031681565b6000818152600260205260409020546001600160a01b031661043a5760405162461bcd60e51b815260040161032c90610c61565b600081815260026020526040908190205490516323b872dd60e01b81526001600160a01b039091169081906323b872dd9061047d90339030908990600401610b19565b602060405180830381600087803b15801561049757600080fd5b505af11580156104ab573d6000803e3d6000fd5b505050506040513d601f19601f820116820180604052508101906104cf9190610a77565b5060006003600081546104e190610cb8565b91829055506040805160a0810182528281526020808201968752818301988952606082019788526001600160a01b03998a16608083018181526003805460009081526004808652878220965187559a516001808801919091559c5160028701559a5190850155519290970180546001600160a01b03191692909a16919091179098559385526005875292842080549586018155845250509290200155565b60015481565b61058d610913565b6001600160a01b031661059e61060e565b6001600160a01b0316146105c45760405162461bcd60e51b815260040161032c90610c2c565b600080546040516001600160a01b03909116907f8be0079c531659141344cd1fd0a4f28419497f9722a3daafe3b4186f6b6457e0908390a3600080546001600160a01b0319169055565b6000546001600160a01b031690565b610625610913565b6001600160a01b031661063661060e565b6001600160a01b03161461065c5760405162461bcd60e51b815260040161032c90610c2c565b60405163a9059cbb60e01b81526001600160a01b0384169063a9059cbb9061068a9085908590600401610b3d565b602060405180830381600087803b1580156106a457600080fd5b505af11580156106b8573d6000803e3d6000fd5b505050506040513d601f19601f820116820180604052508101906106dc9190610a77565b50505050565b6106ea610913565b6001600160a01b03166106fb61060e565b6001600160a01b0316146107215760405162461bcd60e51b815260040161032c90610c2c565b6001600160a01b0381166107475760405162461bcd60e51b815260040161032c90610bc4565b600080546040516001600160a01b03808516939216917f8be0079c531659141344cd1fd0a4f28419497f9722a3daafe3b4186f6b6457e091a3600080546001600160a01b0319166001600160a01b0392909216919091179055565b6004602081905260009182526040909120805460018201546002830154600384015493909401549193909290916001600160a01b031685565b60015483146107fc5760405162461bcd60e51b815260040161032c90610c0a565b60008181526006602052604090205460ff161561082b5760405162461bcd60e51b815260040161032c90610b9c565b6000828152600260205260409020546001600160a01b031661085f5760405162461bcd60e51b815260040161032c90610c61565b6000828152600260205260409081902054905163a9059cbb60e01b81526001600160a01b0390911690819063a9059cbb906108a09089908990600401610b3d565b602060405180830381600087803b1580156108ba57600080fd5b505af11580156108ce573d6000803e3d6000fd5b505050506040513d601f19601f820116820180604052508101906108f29190610a77565b50506000908152600660205260409020805460ff1916600117905550505050565b3390565b80356001600160a01b038116811461092e57600080fd5b919050565b600060208284031215610944578081fd5b61094d82610917565b9392505050565b600080600060608486031215610968578182fd5b61097184610917565b925061097f60208501610917565b9150604084013590509250925092565b600080600080608085870312156109a4578081fd5b6109ad85610917565b966020860135965060408601359560600135945092505050565b600080600080600060a086880312156109de578081fd5b6109e786610917565b97602087013597506040870135966060810135965060800135945092505050565b60008060208385031215610a1a578182fd5b823567ffffffffffffffff80821115610a31578384fd5b818501915085601f830112610a44578384fd5b813581811115610a52578485fd5b8660208083028501011115610a65578485fd5b60209290920196919550909350505050565b600060208284031215610a88578081fd5b8151801515811461094d578182fd5b600060208284031215610aa8578081fd5b5035919050565b60008060408385031215610ac1578182fd5b82359150610ad160208401610917565b90509250929050565b600080600060608486031215610aee578283fd5b505081359360208301359350604090920135919050565b6001600160a01b0391909116815260200190565b6001600160a01b039384168152919092166020820152604081019190915260600190565b6001600160a01b03929092168252602082015260400190565b6020808252825182820181905260009190848201906040850190845b81811015610b90578351151583529284019291840191600101610b72565b50909695505050505050565b6020808252600e908201526d185b1c99585e4818db185a5b595960921b604082015260600190565b60208082526026908201527f4f776e61626c653a206e6577206f776e657220697320746865207a65726f206160408201526564647265737360d01b606082015260800190565b602080825260089082015267216e6574776f726b60c01b604082015260600190565b6020808252818101527f4f776e61626c653a2063616c6c6572206973206e6f7420746865206f776e6572604082015260600190565b602080825260089082015267085d1bdad95b925960c21b604082015260600190565b90815260200190565b9485526020850193909352604084019190915260608301526001600160a01b0316608082015260a00190565b6000600019821415610cd857634e487b7160e01b81526011600452602481fd5b506001019056fea2646970667358221220a784b321eb70ebf80094725b578f6c60761ac572baf3990a456affde5ad8618364736f6c63430008000033",
  "immutableReferences": {},
  "source": "// SPDX-License-Identifier: MIT\npragma solidity ^0.8.0;\n\nimport \"@openzeppelin/contracts/access/Ownable.sol\";\nimport \"@openzeppelin/contracts/utils/math/SafeMath.sol\";\n\ninterface StandardToken {\n    function balanceOf(address account) external view returns (uint256);\n    function transfer(address recipient, uint256 amount) external returns (bool);\n    function transferFrom(address sender, address recipient, uint256 amount) external returns (bool);\n    function approve(address spender, uint256 amount) external returns (bool);\n}\n\ncontract DeusBridge is Ownable{\n    using SafeMath for uint256;\n\n    // we assign a unique ID to each chain\n    uint256 public network;\n\n    // tokenId => tokenContractAddress\n    mapping(uint256 => address) public tokens;\n\n    struct TX{\n        uint256 txId;\n        uint256 tokenId;\n        uint256 amount;\n        uint256 toChain;\n        address user;\n    }\n    uint256 lastTxId = 0;\n\n    mapping(uint256 => TX) public txs;\n    mapping(address => uint256[]) userTxs;\n\n    mapping(uint256 => bool) claimedTxs;\n\n    constructor(\n        uint256 _network\n    ){\n        network = _network;\n    }\n\n    function deposit(uint256 amount, uint256 toChain,\n        uint256 tokenId) public {\n        depositFor(msg.sender, amount, toChain, tokenId);\n    }\n\n    function depositFor(address user,\n        uint256 amount, uint256 toChain,\n        uint256 tokenId\n    ) public {\n        require(tokens[tokenId] != address(0), \"!tokenId\");\n\n        StandardToken token = StandardToken(tokens[tokenId]);\n        token.transferFrom(address(msg.sender), address(this), amount);\n\n        uint256 txId = ++lastTxId;\n        txs[lastTxId] = TX({\n            txId: txId,\n            tokenId: tokenId,\n            toChain: toChain,\n            amount: amount,\n            user: user\n        });\n        userTxs[user].push(txId);\n    }\n\n    //TODO: add Muon signature\n    function claim(address user,\n        uint256 amount, uint256 toChain,\n        uint256 tokenId, uint256 txId) public{\n\n        require(toChain == network, \"!network\");\n\n        //TODO: shall we support more than one chain in one contract?\n        require(!claimedTxs[txId], \"alreay claimed\");\n        require(tokens[tokenId] != address(0), \"!tokenId\");\n\n        StandardToken token = StandardToken(tokens[tokenId]);\n\n        //TODO: any fees?\n        token.transfer(user, amount);\n        claimedTxs[txId] = true;\n    }\n\n    function pendingTxs(uint256[] calldata ids) public view returns(\n        bool[] memory unclaimedIds\n    ){\n        unclaimedIds = new bool[](ids.length);\n        for(uint256 i=0; i < ids.length; i++){\n            unclaimedIds[i] = claimedTxs[ids[i]];\n        }\n    }\n\n    function ownerAddToken(\n        uint256 tokenId, address tokenContract\n    ) public onlyOwner{\n        tokens[tokenId] = tokenContract;\n    }\n\n    function emergencyWithdrawETH(uint256 amount, address addr) public onlyOwner{\n        require(addr != address(0));\n        payable(addr).transfer(amount);\n    }\n\n    function emergencyWithdrawERC20Tokens(address _tokenAddr, address _to, uint _amount) public onlyOwner {\n        StandardToken(_tokenAddr).transfer(_to, _amount);\n    }\n}\n",
  "sourcePath": "/home/projects/projects/deus/bridge-contracts/contracts/DeusBridge.sol",
  "compiler": {
    "name": "solc",
    "version": "0.8.0+commit.c7dfd78e.Emscripten.clang"
  },
  "schemaVersion": "3.3.2",
  "updatedAt": "2021-05-11T06:12:23.328Z",
  "devdoc": {
    "kind": "dev",
    "methods": {
      "owner()": {
        "details": "Returns the address of the current owner."
      },
      "renounceOwnership()": {
        "details": "Leaves the contract without owner. It will not be possible to call `onlyOwner` functions anymore. Can only be called by the current owner. NOTE: Renouncing ownership will leave the contract without an owner, thereby removing any functionality that is only available to the owner."
      },
      "transferOwnership(address)": {
        "details": "Transfers ownership of the contract to a new account (`newOwner`). Can only be called by the current owner."
      }
    },
    "version": 1
  },
  "userdoc": {
    "kind": "user",
    "methods": {},
    "version": 1
  }
}