{
  "contractName": "DeusBridge",
  "abi": [
    {
      "inputs": [
        {
          "internalType": "uint256",
          "name": "_network",
          "type": "uint256"
        }
      ],
      "stateMutability": "nonpayable",
      "type": "constructor"
    },
    {
      "anonymous": false,
      "inputs": [
        {
          "indexed": true,
          "internalType": "address",
          "name": "previousOwner",
          "type": "address"
        },
        {
          "indexed": true,
          "internalType": "address",
          "name": "newOwner",
          "type": "address"
        }
      ],
      "name": "OwnershipTransferred",
      "type": "event"
    },
    {
      "inputs": [
        {
          "internalType": "uint256",
          "name": "",
          "type": "uint256"
        }
      ],
      "name": "claimedTxs",
      "outputs": [
        {
          "internalType": "bool",
          "name": "",
          "type": "bool"
        }
      ],
      "stateMutability": "view",
      "type": "function"
    },
    {
      "inputs": [],
      "name": "network",
      "outputs": [
        {
          "internalType": "uint256",
          "name": "",
          "type": "uint256"
        }
      ],
      "stateMutability": "view",
      "type": "function"
    },
    {
      "inputs": [],
      "name": "owner",
      "outputs": [
        {
          "internalType": "address",
          "name": "",
          "type": "address"
        }
      ],
      "stateMutability": "view",
      "type": "function"
    },
    {
      "inputs": [],
      "name": "renounceOwnership",
      "outputs": [],
      "stateMutability": "nonpayable",
      "type": "function"
    },
    {
      "inputs": [
        {
          "internalType": "uint256",
          "name": "",
          "type": "uint256"
        }
      ],
      "name": "tokens",
      "outputs": [
        {
          "internalType": "address",
          "name": "",
          "type": "address"
        }
      ],
      "stateMutability": "view",
      "type": "function"
    },
    {
      "inputs": [
        {
          "internalType": "address",
          "name": "newOwner",
          "type": "address"
        }
      ],
      "name": "transferOwnership",
      "outputs": [],
      "stateMutability": "nonpayable",
      "type": "function"
    },
    {
      "inputs": [
        {
          "internalType": "uint256",
          "name": "",
          "type": "uint256"
        }
      ],
      "name": "txs",
      "outputs": [
        {
          "internalType": "uint256",
          "name": "txId",
          "type": "uint256"
        },
        {
          "internalType": "uint256",
          "name": "tokenId",
          "type": "uint256"
        },
        {
          "internalType": "uint256",
          "name": "amount",
          "type": "uint256"
        },
        {
          "internalType": "uint256",
          "name": "toChain",
          "type": "uint256"
        },
        {
          "internalType": "address",
          "name": "user",
          "type": "address"
        }
      ],
      "stateMutability": "view",
      "type": "function"
    },
    {
      "inputs": [
        {
          "internalType": "address",
          "name": "",
          "type": "address"
        },
        {
          "internalType": "uint256",
          "name": "",
          "type": "uint256"
        }
      ],
      "name": "userTxs",
      "outputs": [
        {
          "internalType": "uint256",
          "name": "",
          "type": "uint256"
        }
      ],
      "stateMutability": "view",
      "type": "function"
    },
    {
      "inputs": [
        {
          "internalType": "uint256",
          "name": "amount",
          "type": "uint256"
        },
        {
          "internalType": "uint256",
          "name": "toChain",
          "type": "uint256"
        },
        {
          "internalType": "uint256",
          "name": "tokenId",
          "type": "uint256"
        }
      ],
      "name": "deposit",
      "outputs": [],
      "stateMutability": "nonpayable",
      "type": "function"
    },
    {
      "inputs": [
        {
          "internalType": "address",
          "name": "user",
          "type": "address"
        },
        {
          "internalType": "uint256",
          "name": "amount",
          "type": "uint256"
        },
        {
          "internalType": "uint256",
          "name": "toChain",
          "type": "uint256"
        },
        {
          "internalType": "uint256",
          "name": "tokenId",
          "type": "uint256"
        }
      ],
      "name": "depositFor",
      "outputs": [],
      "stateMutability": "nonpayable",
      "type": "function"
    },
    {
      "inputs": [
        {
          "internalType": "address",
          "name": "user",
          "type": "address"
        },
        {
          "internalType": "uint256",
          "name": "amount",
          "type": "uint256"
        },
        {
          "internalType": "uint256",
          "name": "toChain",
          "type": "uint256"
        },
        {
          "internalType": "uint256",
          "name": "tokenId",
          "type": "uint256"
        },
        {
          "internalType": "uint256",
          "name": "txId",
          "type": "uint256"
        }
      ],
      "name": "claim",
      "outputs": [],
      "stateMutability": "nonpayable",
      "type": "function"
    },
    {
      "inputs": [
        {
          "internalType": "uint256[]",
          "name": "ids",
          "type": "uint256[]"
        }
      ],
      "name": "pendingTxs",
      "outputs": [
        {
          "internalType": "bool[]",
          "name": "unclaimedIds",
          "type": "bool[]"
        }
      ],
      "stateMutability": "view",
      "type": "function"
    },
    {
      "inputs": [
        {
          "internalType": "address",
          "name": "user",
          "type": "address"
        }
      ],
      "name": "getUserTxs",
      "outputs": [
        {
          "internalType": "uint256[]",
          "name": "",
          "type": "uint256[]"
        }
      ],
      "stateMutability": "view",
      "type": "function"
    },
    {
      "inputs": [
        {
          "internalType": "uint256",
          "name": "tokenId",
          "type": "uint256"
        },
        {
          "internalType": "address",
          "name": "tokenContract",
          "type": "address"
        }
      ],
      "name": "ownerAddToken",
      "outputs": [],
      "stateMutability": "nonpayable",
      "type": "function"
    },
    {
      "inputs": [
        {
          "internalType": "uint256",
          "name": "_network",
          "type": "uint256"
        }
      ],
      "name": "ownerSetNetworkID",
      "outputs": [],
      "stateMutability": "nonpayable",
      "type": "function"
    },
    {
      "inputs": [
        {
          "internalType": "uint256",
          "name": "amount",
          "type": "uint256"
        },
        {
          "internalType": "address",
          "name": "addr",
          "type": "address"
        }
      ],
      "name": "emergencyWithdrawETH",
      "outputs": [],
      "stateMutability": "nonpayable",
      "type": "function"
    },
    {
      "inputs": [
        {
          "internalType": "address",
          "name": "_tokenAddr",
          "type": "address"
        },
        {
          "internalType": "address",
          "name": "_to",
          "type": "address"
        },
        {
          "internalType": "uint256",
          "name": "_amount",
          "type": "uint256"
        }
      ],
      "name": "emergencyWithdrawERC20Tokens",
      "outputs": [],
      "stateMutability": "nonpayable",
      "type": "function"
    }
  ],
  "bytecode": "0x6080604052600060035534801561001557600080fd5b50604051610fd0380380610fd083398101604081905261003491610094565b600061003e610090565b600080546001600160a01b0319166001600160a01b0383169081178255604051929350917f8be0079c531659141344cd1fd0a4f28419497f9722a3daafe3b4186f6b6457e0908290a3506001556100ac565b3390565b6000602082840312156100a5578081fd5b5051919050565b610f15806100bb6000396000f3fe608060405234801561001057600080fd5b506004361061010a5760003560e01c806367ffdf2a116100a2578063b3f5e00811610071578063b3f5e00814610211578063cd0a5b6514610224578063f2fde38b14610244578063f5715d5614610257578063fdb192ec1461027b5761010a565b806367ffdf2a146101db578063715018a6146101ee5780638da5cb5b146101f6578063a53fe94d146101fe5761010a565b80633f4a7fe7116100de5780633f4a7fe7146101805780634f64b2be14610193578063614f3364146101b35780636739afca146101c65761010a565b8062aeef8a1461010f57806310611bdd14610124578063159450061461014d5780631d600c1e14610160575b600080fd5b61012261011d366004610c97565b61028e565b005b610137610132366004610bc5565b61029f565b6040516101449190610d13565b60405180910390f35b61012261015b366004610c6c565b61038f565b61017361016e366004610c54565b610420565b6040516101449190610d91565b61012261018e366004610c6c565b610435565b6101a66101a1366004610c54565b6104a2565b6040516101449190610cc2565b6101226101c1366004610b4c565b6104bd565b6101ce610636565b6040516101449190610e83565b6101ce6101e9366004610b23565b61063c565b61012261066d565b6101a66106f6565b61012261020c366004610c54565b610705565b61012261021f366004610ae8565b610749565b610237610232366004610ac7565b61080e565b6040516101449190610d59565b610122610252366004610ac7565b61087b565b61026a610265366004610c54565b61093b565b604051610144959493929190610e8c565b610122610289366004610b84565b610974565b61029a338484846104bd565b505050565b60608167ffffffffffffffff8111156102c857634e487b7160e01b600052604160045260246000fd5b6040519080825280602002602001820160405280156102f1578160200160208202803683370190505b50905060005b82811015610388576006600085858481811061032357634e487b7160e01b600052603260045260246000fd5b90506020020135815260200190815260200160002060009054906101000a900460ff1682828151811061036657634e487b7160e01b600052603260045260246000fd5b911515602092830291909101909101528061038081610eb8565b9150506102f7565b5092915050565b610397610aac565b6001600160a01b03166103a86106f6565b6001600160a01b0316146103d75760405162461bcd60e51b81526004016103ce90610e2c565b60405180910390fd5b6001600160a01b0381166103ea57600080fd5b6040516001600160a01b0382169083156108fc029084906000818181858888f1935050505015801561029a573d6000803e3d6000fd5b60066020526000908152604090205460ff1681565b61043d610aac565b6001600160a01b031661044e6106f6565b6001600160a01b0316146104745760405162461bcd60e51b81526004016103ce90610e2c565b60009182526002602052604090912080546001600160a01b0319166001600160a01b03909216919091179055565b6002602052600090815260409020546001600160a01b031681565b6000818152600260205260409020546001600160a01b03166104f15760405162461bcd60e51b81526004016103ce90610e61565b600081815260026020526040908190205490516323b872dd60e01b81526001600160a01b039091169081906323b872dd9061053490339030908990600401610cd6565b602060405180830381600087803b15801561054e57600080fd5b505af1158015610562573d6000803e3d6000fd5b505050506040513d601f19601f820116820180604052508101906105869190610c34565b50600060036000815461059890610eb8565b91829055506040805160a0810182528281526020808201968752818301988952606082019788526001600160a01b03998a16608083018181526003805460009081526004808652878220965187559a516001808801919091559c5160028701559a5190850155519290970180546001600160a01b03191692909a16919091179098559385526005875292842080549586018155845250509290200155565b60015481565b6005602052816000526040600020818154811061065857600080fd5b90600052602060002001600091509150505481565b610675610aac565b6001600160a01b03166106866106f6565b6001600160a01b0316146106ac5760405162461bcd60e51b81526004016103ce90610e2c565b600080546040516001600160a01b03909116907f8be0079c531659141344cd1fd0a4f28419497f9722a3daafe3b4186f6b6457e0908390a3600080546001600160a01b0319169055565b6000546001600160a01b031690565b61070d610aac565b6001600160a01b031661071e6106f6565b6001600160a01b0316146107445760405162461bcd60e51b81526004016103ce90610e2c565b600155565b610751610aac565b6001600160a01b03166107626106f6565b6001600160a01b0316146107885760405162461bcd60e51b81526004016103ce90610e2c565b60405163a9059cbb60e01b81526001600160a01b0384169063a9059cbb906107b69085908590600401610cfa565b602060405180830381600087803b1580156107d057600080fd5b505af11580156107e4573d6000803e3d6000fd5b505050506040513d601f19601f820116820180604052508101906108089190610c34565b50505050565b6001600160a01b03811660009081526005602090815260409182902080548351818402810184019094528084526060939283018282801561086e57602002820191906000526020600020905b81548152602001906001019080831161085a575b505050505090505b919050565b610883610aac565b6001600160a01b03166108946106f6565b6001600160a01b0316146108ba5760405162461bcd60e51b81526004016103ce90610e2c565b6001600160a01b0381166108e05760405162461bcd60e51b81526004016103ce90610dc4565b600080546040516001600160a01b03808516939216917f8be0079c531659141344cd1fd0a4f28419497f9722a3daafe3b4186f6b6457e091a3600080546001600160a01b0319166001600160a01b0392909216919091179055565b6004602081905260009182526040909120805460018201546002830154600384015493909401549193909290916001600160a01b031685565b60015483146109955760405162461bcd60e51b81526004016103ce90610e0a565b60008181526006602052604090205460ff16156109c45760405162461bcd60e51b81526004016103ce90610d9c565b6000828152600260205260409020546001600160a01b03166109f85760405162461bcd60e51b81526004016103ce90610e61565b6000828152600260205260409081902054905163a9059cbb60e01b81526001600160a01b0390911690819063a9059cbb90610a399089908990600401610cfa565b602060405180830381600087803b158015610a5357600080fd5b505af1158015610a67573d6000803e3d6000fd5b505050506040513d601f19601f82011682018060405250810190610a8b9190610c34565b50506000908152600660205260409020805460ff1916600117905550505050565b3390565b80356001600160a01b038116811461087657600080fd5b600060208284031215610ad8578081fd5b610ae182610ab0565b9392505050565b600080600060608486031215610afc578182fd5b610b0584610ab0565b9250610b1360208501610ab0565b9150604084013590509250925092565b60008060408385031215610b35578182fd5b610b3e83610ab0565b946020939093013593505050565b60008060008060808587031215610b61578081fd5b610b6a85610ab0565b966020860135965060408601359560600135945092505050565b600080600080600060a08688031215610b9b578081fd5b610ba486610ab0565b97602087013597506040870135966060810135965060800135945092505050565b60008060208385031215610bd7578182fd5b823567ffffffffffffffff80821115610bee578384fd5b818501915085601f830112610c01578384fd5b813581811115610c0f578485fd5b8660208083028501011115610c22578485fd5b60209290920196919550909350505050565b600060208284031215610c45578081fd5b81518015158114610ae1578182fd5b600060208284031215610c65578081fd5b5035919050565b60008060408385031215610c7e578182fd5b82359150610c8e60208401610ab0565b90509250929050565b600080600060608486031215610cab578283fd5b505081359360208301359350604090920135919050565b6001600160a01b0391909116815260200190565b6001600160a01b039384168152919092166020820152604081019190915260600190565b6001600160a01b03929092168252602082015260400190565b6020808252825182820181905260009190848201906040850190845b81811015610d4d578351151583529284019291840191600101610d2f565b50909695505050505050565b6020808252825182820181905260009190848201906040850190845b81811015610d4d57835183529284019291840191600101610d75565b901515815260200190565b6020808252600e908201526d185b1c99585e4818db185a5b595960921b604082015260600190565b60208082526026908201527f4f776e61626c653a206e6577206f776e657220697320746865207a65726f206160408201526564647265737360d01b606082015260800190565b602080825260089082015267216e6574776f726b60c01b604082015260600190565b6020808252818101527f4f776e61626c653a2063616c6c6572206973206e6f7420746865206f776e6572604082015260600190565b602080825260089082015267085d1bdad95b925960c21b604082015260600190565b90815260200190565b9485526020850193909352604084019190915260608301526001600160a01b0316608082015260a00190565b6000600019821415610ed857634e487b7160e01b81526011600452602481fd5b506001019056fea2646970667358221220d9b28e51b3d4993e9d2a5afc545440383c3f7aeee3371f3567d3b4ce4b971faf64736f6c63430008000033",
  "immutableReferences": {},
  "source": "// SPDX-License-Identifier: MIT\npragma solidity ^0.8.0;\n\nimport \"@openzeppelin/contracts/access/Ownable.sol\";\nimport \"@openzeppelin/contracts/utils/math/SafeMath.sol\";\n\ninterface StandardToken {\n    function balanceOf(address account) external view returns (uint256);\n    function transfer(address recipient, uint256 amount) external returns (bool);\n    function transferFrom(address sender, address recipient, uint256 amount) external returns (bool);\n    function approve(address spender, uint256 amount) external returns (bool);\n}\n\ncontract DeusBridge is Ownable{\n    using SafeMath for uint256;\n\n    // we assign a unique ID to each chain\n    uint256 public network;\n\n    // tokenId => tokenContractAddress\n    mapping(uint256 => address) public tokens;\n\n    struct TX{\n        uint256 txId;\n        uint256 tokenId;\n        uint256 amount;\n        uint256 toChain;\n        address user;\n    }\n    uint256 lastTxId = 0;\n\n    mapping(uint256 => TX) public txs;\n    mapping(address => uint256[]) public userTxs;\n\n    mapping(uint256 => bool) public claimedTxs;\n\n    constructor(\n        uint256 _network\n    ){\n        network = _network;\n    }\n\n    function deposit(uint256 amount, uint256 toChain,\n        uint256 tokenId) public {\n        depositFor(msg.sender, amount, toChain, tokenId);\n    }\n\n    function depositFor(address user,\n        uint256 amount, uint256 toChain,\n        uint256 tokenId\n    ) public {\n        require(tokens[tokenId] != address(0), \"!tokenId\");\n\n        StandardToken token = StandardToken(tokens[tokenId]);\n        token.transferFrom(address(msg.sender), address(this), amount);\n\n        uint256 txId = ++lastTxId;\n        txs[lastTxId] = TX({\n            txId: txId,\n            tokenId: tokenId,\n            toChain: toChain,\n            amount: amount,\n            user: user\n        });\n        userTxs[user].push(txId);\n    }\n\n    //TODO: add Muon signature\n    function claim(address user,\n        uint256 amount, uint256 toChain,\n        uint256 tokenId, uint256 txId) public{\n\n        require(toChain == network, \"!network\");\n\n        //TODO: shall we support more than one chain in one contract?\n        require(!claimedTxs[txId], \"alreay claimed\");\n        require(tokens[tokenId] != address(0), \"!tokenId\");\n\n        StandardToken token = StandardToken(tokens[tokenId]);\n\n        //TODO: any fees?\n        token.transfer(user, amount);\n        claimedTxs[txId] = true;\n    }\n\n    function pendingTxs(uint256[] calldata ids) public view returns(\n        bool[] memory unclaimedIds\n    ){\n        unclaimedIds = new bool[](ids.length);\n        for(uint256 i=0; i < ids.length; i++){\n            unclaimedIds[i] = claimedTxs[ids[i]];\n        }\n    }\n\n    function getUserTxs(address user) public view returns(\n        uint256[] memory\n    ){\n        return userTxs[user];\n    }\n\n    function ownerAddToken(\n        uint256 tokenId, address tokenContract\n    ) public onlyOwner{\n        tokens[tokenId] = tokenContract;\n    }\n\n    function ownerSetNetworkID(\n        uint256 _network\n    ) public onlyOwner{\n        network = _network;\n    }\n\n\n    function emergencyWithdrawETH(uint256 amount, address addr) public onlyOwner{\n        require(addr != address(0));\n        payable(addr).transfer(amount);\n    }\n\n    function emergencyWithdrawERC20Tokens(address _tokenAddr, address _to, uint _amount) public onlyOwner {\n        StandardToken(_tokenAddr).transfer(_to, _amount);\n    }\n}\n",
  "sourcePath": "/home/projects/projects/deus/bridge-contracts/contracts/DeusBridge.sol",
  "compiler": {
    "name": "solc",
    "version": "0.8.0+commit.c7dfd78e.Emscripten.clang"
  },
  "schemaVersion": "3.3.2",
  "updatedAt": "2021-05-12T08:15:32.024Z",
  "devdoc": {
    "kind": "dev",
    "methods": {
      "owner()": {
        "details": "Returns the address of the current owner."
      },
      "renounceOwnership()": {
        "details": "Leaves the contract without owner. It will not be possible to call `onlyOwner` functions anymore. Can only be called by the current owner. NOTE: Renouncing ownership will leave the contract without an owner, thereby removing any functionality that is only available to the owner."
      },
      "transferOwnership(address)": {
        "details": "Transfers ownership of the contract to a new account (`newOwner`). Can only be called by the current owner."
      }
    },
    "version": 1
  },
  "userdoc": {
    "kind": "user",
    "methods": {},
    "version": 1
  }
}